{
    "_format": "hh-sol-artifact-1",
    "contractName": "MoshPit",
    "sourceName": "contracts/MoshPit.sol",
    "abi": [
        {
            "inputs": [],
            "stateMutability": "nonpayable",
            "type": "constructor"
        },
        {
            "anonymous": false,
            "inputs": [
                {
                    "indexed": true,
                    "internalType": "address",
                    "name": "from",
                    "type": "address"
                },
                {
                    "indexed": false,
                    "internalType": "string",
                    "name": "message",
                    "type": "string"
                },
                {
                    "indexed": false,
                    "internalType": "uint256",
                    "name": "timestamp",
                    "type": "uint256"
                }
            ],
            "name": "NewTrack",
            "type": "event"
        },
        {
            "inputs": [
                {
                    "internalType": "string",
                    "name": "_message",
                    "type": "string"
                }
            ],
            "name": "addTrack",
            "outputs": [],
            "stateMutability": "nonpayable",
            "type": "function"
        },
        {
            "inputs": [],
            "name": "getAllTracks",
            "outputs": [
                {
                    "components": [
                        {
                            "internalType": "address",
                            "name": "mosher",
                            "type": "address"
                        },
                        {
                            "internalType": "string",
                            "name": "message",
                            "type": "string"
                        },
                        {
                            "internalType": "uint256",
                            "name": "timestamp",
                            "type": "uint256"
                        }
                    ],
                    "internalType": "struct MoshPit.Track[]",
                    "name": "",
                    "type": "tuple[]"
                }
            ],
            "stateMutability": "view",
            "type": "function"
        },
        {
            "inputs": [],
            "name": "getTotalTracks",
            "outputs": [
                {
                    "internalType": "uint256",
                    "name": "",
                    "type": "uint256"
                }
            ],
            "stateMutability": "view",
            "type": "function"
        }
    ],
    "bytecode": "0x60806040523480156200001157600080fd5b506200005d6040518060400160405280601a81526020017f57656c636f6d6520746f20746865204d6f736850697421203a290000000000008152506200006360201b620003b11760201c565b620001f7565b62000103816040516024016200007a919062000170565b6040516020818303038152906040527f41304fac000000000000000000000000000000000000000000000000000000007bffffffffffffffffffffffffffffffffffffffffffffffffffffffff19166020820180517bffffffffffffffffffffffffffffffffffffffffffffffffffffffff83818316178352505050506200010660201b60201c565b50565b60008151905060006a636f6e736f6c652e6c6f679050602083016000808483855afa5050505050565b60006200013c8262000194565b6200014881856200019f565b93506200015a818560208601620001b0565b6200016581620001e6565b840191505092915050565b600060208201905081810360008301526200018c81846200012f565b905092915050565b600081519050919050565b600082825260208201905092915050565b60005b83811015620001d0578082015181840152602081019050620001b3565b83811115620001e0576000848401525b50505050565b6000601f19601f8301169050919050565b610c0480620002076000396000f3fe608060405234801561001057600080fd5b50600436106100415760003560e01c8063bf0c4bf114610046578063c0678a6614610064578063ed0aad4d14610082575b600080fd5b61004e61009e565b60405161005b9190610922565b60405180910390f35b61006c6100e9565b604051610079919061087e565b60405180910390f35b61009c600480360381019061009791906106b6565b61023a565b005b60006100e16040518060400160405280601681526020017f5765206861766520256420746f74616c2077617665730000000000000000000081525060005461044a565b600054905090565b60606001805480602002602001604051908101604052809291908181526020016000905b8282101561023157838290600052602060002090600302016040518060600160405290816000820160009054906101000a900473ffffffffffffffffffffffffffffffffffffffff1673ffffffffffffffffffffffffffffffffffffffff1673ffffffffffffffffffffffffffffffffffffffff16815260200160018201805461019690610acd565b80601f01602080910402602001604051908101604052809291908181526020018280546101c290610acd565b801561020f5780601f106101e45761010080835404028352916020019161020f565b820191906000526020600020905b8154815290600101906020018083116101f257829003601f168201915b505050505081526020016002820154815250508152602001906001019061010d565b50505050905090565b600160008082825461024c91906109f9565b925050819055506102926040518060400160405280601681526020017f25732068617320616464656420612062616e6765722100000000000000000000815250336104e6565b600160405180606001604052803373ffffffffffffffffffffffffffffffffffffffff16815260200183815260200142815250908060018154018082558091505060019003906000526020600020906003020160009091909190915060008201518160000160006101000a81548173ffffffffffffffffffffffffffffffffffffffff021916908373ffffffffffffffffffffffffffffffffffffffff16021790555060208201518160010190805190602001906103519291906105ab565b506040820151816002015550503373ffffffffffffffffffffffffffffffffffffffff167f6b5335e05a0ffc2a4aa990a3f9fa982f662d03316e51f6aeb16ee7292e131a6082426040516103a69291906108f2565b60405180910390a250565b610447816040516024016103c591906108a0565b6040516020818303038152906040527f41304fac000000000000000000000000000000000000000000000000000000007bffffffffffffffffffffffffffffffffffffffffffffffffffffffff19166020820180517bffffffffffffffffffffffffffffffffffffffffffffffffffffffff8381831617835250505050610582565b50565b6104e282826040516024016104609291906108f2565b6040516020818303038152906040527f9710a9d0000000000000000000000000000000000000000000000000000000007bffffffffffffffffffffffffffffffffffffffffffffffffffffffff19166020820180517bffffffffffffffffffffffffffffffffffffffffffffffffffffffff8381831617835250505050610582565b5050565b61057e82826040516024016104fc9291906108c2565b6040516020818303038152906040527f319af333000000000000000000000000000000000000000000000000000000007bffffffffffffffffffffffffffffffffffffffffffffffffffffffff19166020820180517bffffffffffffffffffffffffffffffffffffffffffffffffffffffff8381831617835250505050610582565b5050565b60008151905060006a636f6e736f6c652e6c6f679050602083016000808483855afa5050505050565b8280546105b790610acd565b90600052602060002090601f0160209004810192826105d95760008555610620565b82601f106105f257805160ff1916838001178555610620565b82800160010185558215610620579182015b8281111561061f578251825591602001919060010190610604565b5b50905061062d9190610631565b5090565b5b8082111561064a576000816000905550600101610632565b5090565b600061066161065c84610962565b61093d565b90508281526020810184848401111561067957600080fd5b610684848285610a8b565b509392505050565b600082601f83011261069d57600080fd5b81356106ad84826020860161064e565b91505092915050565b6000602082840312156106c857600080fd5b600082013567ffffffffffffffff8111156106e257600080fd5b6106ee8482850161068c565b91505092915050565b60006107038383610810565b905092915050565b61071481610a4f565b82525050565b61072381610a4f565b82525050565b6000610734826109a3565b61073e81856109c6565b93508360208202850161075085610993565b8060005b8581101561078c578484038952815161076d85826106f7565b9450610778836109b9565b925060208a01995050600181019050610754565b50829750879550505050505092915050565b60006107a9826109ae565b6107b381856109d7565b93506107c3818560208601610a9a565b6107cc81610bbd565b840191505092915050565b60006107e2826109ae565b6107ec81856109e8565b93506107fc818560208601610a9a565b61080581610bbd565b840191505092915050565b6000606083016000830151610828600086018261070b565b5060208301518482036020860152610840828261079e565b91505060408301516108556040860182610860565b508091505092915050565b61086981610a81565b82525050565b61087881610a81565b82525050565b600060208201905081810360008301526108988184610729565b905092915050565b600060208201905081810360008301526108ba81846107d7565b905092915050565b600060408201905081810360008301526108dc81856107d7565b90506108eb602083018461071a565b9392505050565b6000604082019050818103600083015261090c81856107d7565b905061091b602083018461086f565b9392505050565b6000602082019050610937600083018461086f565b92915050565b6000610947610958565b90506109538282610aff565b919050565b6000604051905090565b600067ffffffffffffffff82111561097d5761097c610b8e565b5b61098682610bbd565b9050602081019050919050565b6000819050602082019050919050565b600081519050919050565b600081519050919050565b6000602082019050919050565b600082825260208201905092915050565b600082825260208201905092915050565b600082825260208201905092915050565b6000610a0482610a81565b9150610a0f83610a81565b9250827fffffffffffffffffffffffffffffffffffffffffffffffffffffffffffffffff03821115610a4457610a43610b30565b5b828201905092915050565b6000610a5a82610a61565b9050919050565b600073ffffffffffffffffffffffffffffffffffffffff82169050919050565b6000819050919050565b82818337600083830152505050565b60005b83811015610ab8578082015181840152602081019050610a9d565b83811115610ac7576000848401525b50505050565b60006002820490506001821680610ae557607f821691505b60208210811415610af957610af8610b5f565b5b50919050565b610b0882610bbd565b810181811067ffffffffffffffff82111715610b2757610b26610b8e565b5b80604052505050565b7f4e487b7100000000000000000000000000000000000000000000000000000000600052601160045260246000fd5b7f4e487b7100000000000000000000000000000000000000000000000000000000600052602260045260246000fd5b7f4e487b7100000000000000000000000000000000000000000000000000000000600052604160045260246000fd5b6000601f19601f830116905091905056fea264697066735822122089ef2997df4dcfd6c310c395135ca6917a69cd8c38b64c56768c2d11f26dea5b64736f6c63430008040033",
    "linkReferences": {},
    "deployedLinkReferences": {}
}