{
    "_format": "hh-sol-artifact-1",
    "contractName": "MoshPit",
    "sourceName": "contracts/MoshPit.sol",
    "abi": [
        {
            "inputs": [],
            "stateMutability": "nonpayable",
            "type": "constructor"
        },
        {
            "inputs": [],
            "name": "addTrack",
            "outputs": [],
            "stateMutability": "nonpayable",
            "type": "function"
        },
        {
            "inputs": [],
            "name": "getTotalTracks",
            "outputs": [
                {
                    "internalType": "uint256",
                    "name": "",
                    "type": "uint256"
                }
            ],
            "stateMutability": "view",
            "type": "function"
        },
        {
            "inputs": [],
            "name": "getTotalUserTracks",
            "outputs": [
                {
                    "internalType": "uint256",
                    "name": "",
                    "type": "uint256"
                }
            ],
            "stateMutability": "view",
            "type": "function"
        }
    ],
    "bytecode": "0x608060405234801561001057600080fd5b506100596040518060400160405280601a81526020017f57656c636f6d6520746f20746865204d6f736850697421203a2900000000000081525061005e60201b6103021760201c565b6101e1565b6100fa81604051602401610072919061015f565b6040516020818303038152906040527f41304fac000000000000000000000000000000000000000000000000000000007bffffffffffffffffffffffffffffffffffffffffffffffffffffffff19166020820180517bffffffffffffffffffffffffffffffffffffffffffffffffffffffff83818316178352505050506100fd60201b60201c565b50565b60008151905060006a636f6e736f6c652e6c6f679050602083016000808483855afa5050505050565b600061013182610181565b61013b818561018c565b935061014b81856020860161019d565b610154816101d0565b840191505092915050565b600060208201905081810360008301526101798184610126565b905092915050565b600081519050919050565b600082825260208201905092915050565b60005b838110156101bb5780820151818401526020810190506101a0565b838111156101ca576000848401525b50505050565b6000601f19601f8301169050919050565b610846806101f06000396000f3fe608060405234801561001057600080fd5b50600436106100415760003560e01c8063044dcc5f146100465780639d55b33514610050578063bf0c4bf11461006e575b600080fd5b61004e61008c565b005b61005861013c565b60405161006591906106b2565b60405180910390f35b610076610289565b60405161008391906106b2565b60405180910390f35b600160008082825461009e91906106e9565b9250508190555060018060003373ffffffffffffffffffffffffffffffffffffffff1673ffffffffffffffffffffffffffffffffffffffff16815260200190815260200160002060008282546100f491906106e9565b9250508190555061013a6040518060400160405280601681526020017f25732068617320616464656420612062616e67657221000000000000000000008152503361039b565b565b60008060018060003373ffffffffffffffffffffffffffffffffffffffff1673ffffffffffffffffffffffffffffffffffffffff16815260200190815260200160002054146101c0576040518060400160405280601781526020017f2573206861732073656e742025732062616e67657273210000000000000000008152506101f7565b6040518060400160405280601681526020017f2573206861732073656e742025732062616e67657221000000000000000000008152505b90506102438133600160003373ffffffffffffffffffffffffffffffffffffffff1673ffffffffffffffffffffffffffffffffffffffff16815260200190815260200160002054610437565b600160003373ffffffffffffffffffffffffffffffffffffffff1673ffffffffffffffffffffffffffffffffffffffff1681526020019081526020016000205491505090565b6000806001600054146102b4576040518060600160405280602281526020016107ef602291396102eb565b6040518060400160405280602081526020017f546865726520697320257320747261636b20696e20746865204d6f73685069748152505b90506102f9816000546104d6565b60005491505090565b6103988160405160240161031691906105f2565b6040516020818303038152906040527f41304fac000000000000000000000000000000000000000000000000000000007bffffffffffffffffffffffffffffffffffffffffffffffffffffffff19166020820180517bffffffffffffffffffffffffffffffffffffffffffffffffffffffff8381831617835250505050610572565b50565b61043382826040516024016103b1929190610614565b6040516020818303038152906040527f319af333000000000000000000000000000000000000000000000000000000007bffffffffffffffffffffffffffffffffffffffffffffffffffffffff19166020820180517bffffffffffffffffffffffffffffffffffffffffffffffffffffffff8381831617835250505050610572565b5050565b6104d183838360405160240161044f93929190610644565b6040516020818303038152906040527f07c81217000000000000000000000000000000000000000000000000000000007bffffffffffffffffffffffffffffffffffffffffffffffffffffffff19166020820180517bffffffffffffffffffffffffffffffffffffffffffffffffffffffff8381831617835250505050610572565b505050565b61056e82826040516024016104ec929190610682565b6040516020818303038152906040527f9710a9d0000000000000000000000000000000000000000000000000000000007bffffffffffffffffffffffffffffffffffffffffffffffffffffffff19166020820180517bffffffffffffffffffffffffffffffffffffffffffffffffffffffff8381831617835250505050610572565b5050565b60008151905060006a636f6e736f6c652e6c6f679050602083016000808483855afa5050505050565b6105a48161073f565b82525050565b60006105b5826106cd565b6105bf81856106d8565b93506105cf81856020860161077b565b6105d8816107dd565b840191505092915050565b6105ec81610771565b82525050565b6000602082019050818103600083015261060c81846105aa565b905092915050565b6000604082019050818103600083015261062e81856105aa565b905061063d602083018461059b565b9392505050565b6000606082019050818103600083015261065e81866105aa565b905061066d602083018561059b565b61067a60408301846105e3565b949350505050565b6000604082019050818103600083015261069c81856105aa565b90506106ab60208301846105e3565b9392505050565b60006020820190506106c760008301846105e3565b92915050565b600081519050919050565b600082825260208201905092915050565b60006106f482610771565b91506106ff83610771565b9250827fffffffffffffffffffffffffffffffffffffffffffffffffffffffffffffffff03821115610734576107336107ae565b5b828201905092915050565b600061074a82610751565b9050919050565b600073ffffffffffffffffffffffffffffffffffffffff82169050919050565b6000819050919050565b60005b8381101561079957808201518184015260208101905061077e565b838111156107a8576000848401525b50505050565b7f4e487b7100000000000000000000000000000000000000000000000000000000600052601160045260246000fd5b6000601f19601f830116905091905056fe54686572652061726520257320747261636b7320696e20746865204d6f7368506974a26469706673582212204bd3b5bc40d6abc97d31946cff8af478a0614e70c4089f9550a704eb6e65a02164736f6c63430008040033",
    "linkReferences": {},
    "deployedLinkReferences": {}
}